{
  "address": "0x5FbDB2315678afecb367f032d93F642f64180aa3",
  "abi": [
    {
      "inputs": [
        {
          "internalType": "address",
          "name": "_estateOwner",
          "type": "address"
        },
        {
          "internalType": "address",
          "name": "_beneficiary",
          "type": "address"
        }
      ],
      "stateMutability": "nonpayable",
      "type": "constructor"
    },
    {
      "anonymous": false,
      "inputs": [
        {
          "indexed": false,
          "internalType": "address",
          "name": "beneficiary",
          "type": "address"
        }
      ],
      "name": "CheckPulse",
      "type": "event"
    },
    {
      "anonymous": false,
      "inputs": [
        {
          "indexed": false,
          "internalType": "address",
          "name": "estateOwner",
          "type": "address"
        },
        {
          "indexed": false,
          "internalType": "bool",
          "name": "alive",
          "type": "bool"
        }
      ],
      "name": "HeartBeat",
      "type": "event"
    },
    {
      "inputs": [],
      "name": "addFunds",
      "outputs": [],
      "stateMutability": "payable",
      "type": "function"
    },
    {
      "inputs": [],
      "name": "claimInheritance",
      "outputs": [],
      "stateMutability": "payable",
      "type": "function"
    },
    {
      "inputs": [],
      "name": "getBalance",
      "outputs": [
        {
          "internalType": "uint256",
          "name": "",
          "type": "uint256"
        }
      ],
      "stateMutability": "view",
      "type": "function"
    },
    {
      "inputs": [],
      "name": "getEstateOwner",
      "outputs": [
        {
          "internalType": "address",
          "name": "",
          "type": "address"
        }
      ],
      "stateMutability": "view",
      "type": "function"
    },
    {
      "inputs": [],
      "name": "getEstateOwnerAlive",
      "outputs": [
        {
          "internalType": "bool",
          "name": "",
          "type": "bool"
        }
      ],
      "stateMutability": "view",
      "type": "function"
    },
    {
      "inputs": [],
      "name": "getResponseWindow",
      "outputs": [
        {
          "internalType": "uint256",
          "name": "",
          "type": "uint256"
        }
      ],
      "stateMutability": "view",
      "type": "function"
    },
    {
      "inputs": [],
      "name": "heartBeat",
      "outputs": [],
      "stateMutability": "nonpayable",
      "type": "function"
    },
    {
      "inputs": [],
      "name": "terminate",
      "outputs": [],
      "stateMutability": "payable",
      "type": "function"
    }
  ],
  "transactionHash": "0xa08eb3d77c0ab16bd01e33d55a21c95ba65e129b4db6ab26177af53c45a3d985",
  "args": [
    "0xf39Fd6e51aad88F6F4ce6aB8827279cffFb92266",
    "0x70997970C51812dc3A010C7d01b50e0d17dc79C8"
  ],
  "numDeployments": 1,
  "solcInputHash": "7ca7e009ac1466a88a0f48a004e2f589",
  "bytecode": "0x60a060405263e7be2c006080908152503480156200001c57600080fd5b5060405162000fbe38038062000fbe833981810160405281019062000042919062000336565b6200008d6040518060400160405280601981526020017f3d3d3d3d3d3d3d3d3d3d3d3d3d3d3d3d3d3d3d3d3d3d3d3d3d000000000000008152506200015d60201b620005191760201c565b620000a3826200020060201b620005b21760201c565b620000b9816200020060201b620005b21760201c565b81600160006101000a81548173ffffffffffffffffffffffffffffffffffffffff021916908373ffffffffffffffffffffffffffffffffffffffff160217905550806000806101000a81548173ffffffffffffffffffffffffffffffffffffffff021916908373ffffffffffffffffffffffffffffffffffffffff1602179055506001600460006101000a81548160ff021916908315150217905550505062000469565b620001fd8160405160240162000174919062000417565b6040516020818303038152906040527f41304fac000000000000000000000000000000000000000000000000000000007bffffffffffffffffffffffffffffffffffffffffffffffffffffffff19166020820180517bffffffffffffffffffffffffffffffffffffffffffffffffffffffff8381831617835250505050620002a360201b60201c565b50565b620002a0816040516024016200021791906200044c565b6040516020818303038152906040527f2c2ecbc2000000000000000000000000000000000000000000000000000000007bffffffffffffffffffffffffffffffffffffffffffffffffffffffff19166020820180517bffffffffffffffffffffffffffffffffffffffffffffffffffffffff8381831617835250505050620002a360201b60201c565b50565b60008151905060006a636f6e736f6c652e6c6f679050602083016000808483855afa5050505050565b600080fd5b600073ffffffffffffffffffffffffffffffffffffffff82169050919050565b6000620002fe82620002d1565b9050919050565b6200031081620002f1565b81146200031c57600080fd5b50565b600081519050620003308162000305565b92915050565b6000806040838503121562000350576200034f620002cc565b5b600062000360858286016200031f565b925050602062000373858286016200031f565b9150509250929050565b600081519050919050565b600082825260208201905092915050565b60005b83811015620003b95780820151818401526020810190506200039c565b60008484015250505050565b6000601f19601f8301169050919050565b6000620003e3826200037d565b620003ef818562000388565b93506200040181856020860162000399565b6200040c81620003c5565b840191505092915050565b60006020820190508181036000830152620004338184620003d6565b905092915050565b6200044681620002f1565b82525050565b60006020820190506200046360008301846200043b565b92915050565b608051610b3962000485600039600061028e0152610b396000f3fe60806040526004361061007b5760003560e01c80639f3c44161161004e5780639f3c44161461010b578063a26759cb14610115578063b56a9f2c1461011f578063c33dce8a146101365761007b565b80630c08bf881461008057806312065fe01461008a5780636683caa5146100b55780636f78aa70146100e0575b600080fd5b610088610161565b005b34801561009657600080fd5b5061009f6101a1565b6040516100ac91906106e8565b60405180910390f35b3480156100c157600080fd5b506100ca6101ab565b6040516100d7919061071e565b60405180910390f35b3480156100ec57600080fd5b506100f56101c2565b604051610102919061077a565b60405180910390f35b6101136101ec565b005b61011d610375565b005b34801561012b57600080fd5b50610134610420565b005b34801561014257600080fd5b5061014b61050f565b60405161015891906106e8565b60405180910390f35b6000600160009054906101000a900473ffffffffffffffffffffffffffffffffffffffff1690508073ffffffffffffffffffffffffffffffffffffffff16ff5b6000600254905090565b6000600460009054906101000a900460ff16905090565b6000600160009054906101000a900473ffffffffffffffffffffffffffffffffffffffff16905090565b60008054906101000a900473ffffffffffffffffffffffffffffffffffffffff1673ffffffffffffffffffffffffffffffffffffffff163373ffffffffffffffffffffffffffffffffffffffff161461027a576040517f08c379a000000000000000000000000000000000000000000000000000000000815260040161027190610818565b60405180910390fd5b60006003544261028a9190610867565b90507f0000000000000000000000000000000000000000000000000000000000000000811180156102cf575060011515600460009054906101000a900460ff16151514155b156103695760008060009054906101000a900473ffffffffffffffffffffffffffffffffffffffff1673ffffffffffffffffffffffffffffffffffffffff1660025460405161031d906108cc565b60006040518083038185875af1925050503d806000811461035a576040519150601f19603f3d011682016040523d82523d6000602084013e61035f565b606091505b5050905050610372565b61037161064b565b5b50565b600160009054906101000a900473ffffffffffffffffffffffffffffffffffffffff1673ffffffffffffffffffffffffffffffffffffffff163373ffffffffffffffffffffffffffffffffffffffff1614610405576040517f08c379a00000000000000000000000000000000000000000000000000000000081526004016103fc90610953565b60405180910390fd5b34600260008282546104179190610973565b92505081905550565b600160009054906101000a900473ffffffffffffffffffffffffffffffffffffffff1673ffffffffffffffffffffffffffffffffffffffff163373ffffffffffffffffffffffffffffffffffffffff16146104b0576040517f08c379a00000000000000000000000000000000000000000000000000000000081526004016104a790610a19565b60405180910390fd5b6001600460006101000a81548160ff02191690831515021790555060006003819055507f7fe074a8ae2e3cab048089987181fd6169eb5fa62717fdca4206b8bcaeeb85ed336001604051610505929190610a39565b60405180910390a1565b6000600354905090565b6105af8160405160240161052d9190610ae1565b6040516020818303038152906040527f41304fac000000000000000000000000000000000000000000000000000000007bffffffffffffffffffffffffffffffffffffffffffffffffffffffff19166020820180517bffffffffffffffffffffffffffffffffffffffffffffffffffffffff83818316178352505050506106a6565b50565b610648816040516024016105c6919061077a565b6040516020818303038152906040527f2c2ecbc2000000000000000000000000000000000000000000000000000000007bffffffffffffffffffffffffffffffffffffffffffffffffffffffff19166020820180517bffffffffffffffffffffffffffffffffffffffffffffffffffffffff83818316178352505050506106a6565b50565b426003819055506000600460006101000a81548160ff0219169083151502179055507fb796f84a8092696d566b57f45b151e538354d0a57cc18eb1cb524162ef9e44af3360405161069c919061077a565b60405180910390a1565b60008151905060006a636f6e736f6c652e6c6f679050602083016000808483855afa5050505050565b6000819050919050565b6106e2816106cf565b82525050565b60006020820190506106fd60008301846106d9565b92915050565b60008115159050919050565b61071881610703565b82525050565b6000602082019050610733600083018461070f565b92915050565b600073ffffffffffffffffffffffffffffffffffffffff82169050919050565b600061076482610739565b9050919050565b61077481610759565b82525050565b600060208201905061078f600083018461076b565b92915050565b600082825260208201905092915050565b7f4d757374206265207468652062656e656669636961727920746f20636c61696d60008201527f2074686520696e6865726974616e636500000000000000000000000000000000602082015250565b6000610802603083610795565b915061080d826107a6565b604082019050919050565b60006020820190508181036000830152610831816107f5565b9050919050565b7f4e487b7100000000000000000000000000000000000000000000000000000000600052601160045260246000fd5b6000610872826106cf565b915061087d836106cf565b925082820390508181111561089557610894610838565b5b92915050565b600081905092915050565b50565b60006108b660008361089b565b91506108c1826108a6565b600082019050919050565b60006108d7826108a9565b9150819050919050565b7f43616e206f6e6c792062652066756e646564206279207468652065737461746560008201527f206f776e65720000000000000000000000000000000000000000000000000000602082015250565b600061093d602683610795565b9150610948826108e1565b604082019050919050565b6000602082019050818103600083015261096c81610930565b9050919050565b600061097e826106cf565b9150610989836106cf565b92508282019050808211156109a1576109a0610838565b5b92915050565b7f4d7573742062652074686520657374617465206f776e657220746f2073656e6460008201527f2061206865617274206265617400000000000000000000000000000000000000602082015250565b6000610a03602d83610795565b9150610a0e826109a7565b604082019050919050565b60006020820190508181036000830152610a32816109f6565b9050919050565b6000604082019050610a4e600083018561076b565b610a5b602083018461070f565b9392505050565b600081519050919050565b60005b83811015610a8b578082015181840152602081019050610a70565b60008484015250505050565b6000601f19601f8301169050919050565b6000610ab382610a62565b610abd8185610795565b9350610acd818560208601610a6d565b610ad681610a97565b840191505092915050565b60006020820190508181036000830152610afb8184610aa8565b90509291505056fea2646970667358221220029c4e9563b564517a8e577b1df5009eb797e5d840bd8f0c68605f4295e1fc0d64736f6c63430008110033",
  "devdoc": {
    "kind": "dev",
    "methods": {},
    "version": 1
  },
  "userdoc": {
    "kind": "user",
    "methods": {},
    "version": 1
  },
  "storageLayout": {
    "storage": [
      {
        "astId": 14,
        "contract": "contracts/EstatePlanning.sol:EstatePlanning",
        "label": "beneficiary",
        "offset": 0,
        "slot": "0",
        "type": "t_address"
      },
      {
        "astId": 16,
        "contract": "contracts/EstatePlanning.sol:EstatePlanning",
        "label": "estateOwner",
        "offset": 0,
        "slot": "1",
        "type": "t_address"
      },
      {
        "astId": 18,
        "contract": "contracts/EstatePlanning.sol:EstatePlanning",
        "label": "balance",
        "offset": 0,
        "slot": "2",
        "type": "t_uint256"
      },
      {
        "astId": 20,
        "contract": "contracts/EstatePlanning.sol:EstatePlanning",
        "label": "responseWindow",
        "offset": 0,
        "slot": "3",
        "type": "t_uint256"
      },
      {
        "astId": 22,
        "contract": "contracts/EstatePlanning.sol:EstatePlanning",
        "label": "estateOwnerAlive",
        "offset": 0,
        "slot": "4",
        "type": "t_bool"
      }
    ],
    "types": {
      "t_address": {
        "encoding": "inplace",
        "label": "address",
        "numberOfBytes": "20"
      },
      "t_bool": {
        "encoding": "inplace",
        "label": "bool",
        "numberOfBytes": "1"
      },
      "t_uint256": {
        "encoding": "inplace",
        "label": "uint256",
        "numberOfBytes": "32"
      }
    }
  }
}