{
  "address": "0x5FbDB2315678afecb367f032d93F642f64180aa3",
  "abi": [
    {
      "inputs": [
        {
          "internalType": "address",
          "name": "_estateOwner",
          "type": "address"
        },
        {
          "internalType": "address",
          "name": "_beneficiary",
          "type": "address"
        }
      ],
      "stateMutability": "nonpayable",
      "type": "constructor"
    },
    {
      "anonymous": false,
      "inputs": [
        {
          "indexed": false,
          "internalType": "address",
          "name": "beneficiary",
          "type": "address"
        }
      ],
      "name": "CheckPulse",
      "type": "event"
    },
    {
      "anonymous": false,
      "inputs": [
        {
          "indexed": false,
          "internalType": "address",
          "name": "estateOwner",
          "type": "address"
        },
        {
          "indexed": false,
          "internalType": "bool",
          "name": "alive",
          "type": "bool"
        }
      ],
      "name": "HeartBeat",
      "type": "event"
    },
    {
      "inputs": [],
      "name": "addFunds",
      "outputs": [],
      "stateMutability": "payable",
      "type": "function"
    },
    {
      "inputs": [],
      "name": "claimInheritance",
      "outputs": [],
      "stateMutability": "payable",
      "type": "function"
    },
    {
      "inputs": [],
      "name": "getBalance",
      "outputs": [
        {
          "internalType": "uint256",
          "name": "",
          "type": "uint256"
        }
      ],
      "stateMutability": "view",
      "type": "function"
    },
    {
      "inputs": [],
      "name": "getEstateOwner",
      "outputs": [
        {
          "internalType": "address",
          "name": "",
          "type": "address"
        }
      ],
      "stateMutability": "view",
      "type": "function"
    },
    {
      "inputs": [],
      "name": "getEstateOwnerAlive",
      "outputs": [
        {
          "internalType": "bool",
          "name": "",
          "type": "bool"
        }
      ],
      "stateMutability": "view",
      "type": "function"
    },
    {
      "inputs": [],
      "name": "getResponseWindow",
      "outputs": [
        {
          "internalType": "uint256",
          "name": "",
          "type": "uint256"
        }
      ],
      "stateMutability": "view",
      "type": "function"
    },
    {
      "inputs": [],
      "name": "heartBeat",
      "outputs": [],
      "stateMutability": "nonpayable",
      "type": "function"
    },
    {
      "inputs": [],
      "name": "terminate",
      "outputs": [],
      "stateMutability": "payable",
      "type": "function"
    },
    {
      "inputs": [],
      "name": "timePassed",
      "outputs": [
        {
          "internalType": "bool",
          "name": "",
          "type": "bool"
        }
      ],
      "stateMutability": "view",
      "type": "function"
    }
  ],
  "transactionHash": "0xea796038174edbd90c87d3d1d0716db32ba7ced59d823d7a371d1d800b078cb0",
  "args": [
    "0xf39Fd6e51aad88F6F4ce6aB8827279cffFb92266",
    "0x70997970C51812dc3A010C7d01b50e0d17dc79C8"
  ],
  "numDeployments": 1,
  "solcInputHash": "f2e19f2cb387af0ba692f02fda4a17ad",
  "bytecode": "0x60a0604052601e60809081525034801561001857600080fd5b50604051610b17380380610b17833981810160405281019061003a9190610140565b81600160006101000a81548173ffffffffffffffffffffffffffffffffffffffff021916908373ffffffffffffffffffffffffffffffffffffffff160217905550806000806101000a81548173ffffffffffffffffffffffffffffffffffffffff021916908373ffffffffffffffffffffffffffffffffffffffff1602179055506001600460006101000a81548160ff0219169083151502179055505050610180565b600080fd5b600073ffffffffffffffffffffffffffffffffffffffff82169050919050565b600061010d826100e2565b9050919050565b61011d81610102565b811461012857600080fd5b50565b60008151905061013a81610114565b92915050565b60008060408385031215610157576101566100dd565b5b60006101658582860161012b565b92505060206101768582860161012b565b9150509250929050565b60805161097c61019b600039600061042b015261097c6000f3fe6080604052600436106100865760003560e01c80639f3c4416116100595780639f3c441614610116578063a26759cb14610120578063b44542531461012a578063b56a9f2c14610155578063c33dce8a1461016c57610086565b80630c08bf881461008b57806312065fe0146100955780636683caa5146100c05780636f78aa70146100eb575b600080fd5b610093610197565b005b3480156100a157600080fd5b506100aa6101d7565b6040516100b791906105cc565b60405180910390f35b3480156100cc57600080fd5b506100d56101e1565b6040516100e29190610602565b60405180910390f35b3480156100f757600080fd5b506101006101f8565b60405161010d919061065e565b60405180910390f35b61011e610222565b005b61012861037c565b005b34801561013657600080fd5b5061013f610427565b60405161014c9190610602565b60405180910390f35b34801561016157600080fd5b5061016a61045f565b005b34801561017857600080fd5b5061018161054e565b60405161018e91906105cc565b60405180910390f35b6000600160009054906101000a900473ffffffffffffffffffffffffffffffffffffffff1690508073ffffffffffffffffffffffffffffffffffffffff16ff5b6000600254905090565b6000600460009054906101000a900460ff16905090565b6000600160009054906101000a900473ffffffffffffffffffffffffffffffffffffffff16905090565b60008054906101000a900473ffffffffffffffffffffffffffffffffffffffff1673ffffffffffffffffffffffffffffffffffffffff163373ffffffffffffffffffffffffffffffffffffffff16146102b0576040517f08c379a00000000000000000000000000000000000000000000000000000000081526004016102a7906106fc565b60405180910390fd5b6102b8610427565b80156102d7575060001515600460009054906101000a900460ff161515145b156103715760008060009054906101000a900473ffffffffffffffffffffffffffffffffffffffff1673ffffffffffffffffffffffffffffffffffffffff166002546040516103259061074d565b60006040518083038185875af1925050503d8060008114610362576040519150601f19603f3d011682016040523d82523d6000602084013e610367565b606091505b505090505061037a565b610379610558565b5b565b600160009054906101000a900473ffffffffffffffffffffffffffffffffffffffff1673ffffffffffffffffffffffffffffffffffffffff163373ffffffffffffffffffffffffffffffffffffffff161461040c576040517f08c379a0000000000000000000000000000000000000000000000000000000008152600401610403906107d4565b60405180910390fd5b346002600082825461041e9190610823565b92505081905550565b60007f0000000000000000000000000000000000000000000000000000000000000000600354426104589190610857565b1015905090565b600160009054906101000a900473ffffffffffffffffffffffffffffffffffffffff1673ffffffffffffffffffffffffffffffffffffffff163373ffffffffffffffffffffffffffffffffffffffff16146104ef576040517f08c379a00000000000000000000000000000000000000000000000000000000081526004016104e6906108fd565b60405180910390fd5b6001600460006101000a81548160ff02191690831515021790555060006003819055507f7fe074a8ae2e3cab048089987181fd6169eb5fa62717fdca4206b8bcaeeb85ed33600160405161054492919061091d565b60405180910390a1565b6000600354905090565b426003819055506000600460006101000a81548160ff0219169083151502179055507fb796f84a8092696d566b57f45b151e538354d0a57cc18eb1cb524162ef9e44af336040516105a9919061065e565b60405180910390a1565b6000819050919050565b6105c6816105b3565b82525050565b60006020820190506105e160008301846105bd565b92915050565b60008115159050919050565b6105fc816105e7565b82525050565b600060208201905061061760008301846105f3565b92915050565b600073ffffffffffffffffffffffffffffffffffffffff82169050919050565b60006106488261061d565b9050919050565b6106588161063d565b82525050565b6000602082019050610673600083018461064f565b92915050565b600082825260208201905092915050565b7f4d757374206265207468652062656e656669636961727920746f20636c61696d60008201527f2074686520696e6865726974616e636500000000000000000000000000000000602082015250565b60006106e6603083610679565b91506106f18261068a565b604082019050919050565b60006020820190508181036000830152610715816106d9565b9050919050565b600081905092915050565b50565b600061073760008361071c565b915061074282610727565b600082019050919050565b60006107588261072a565b9150819050919050565b7f43616e206f6e6c792062652066756e646564206279207468652065737461746560008201527f206f776e65720000000000000000000000000000000000000000000000000000602082015250565b60006107be602683610679565b91506107c982610762565b604082019050919050565b600060208201905081810360008301526107ed816107b1565b9050919050565b7f4e487b7100000000000000000000000000000000000000000000000000000000600052601160045260246000fd5b600061082e826105b3565b9150610839836105b3565b9250828201905080821115610851576108506107f4565b5b92915050565b6000610862826105b3565b915061086d836105b3565b9250828203905081811115610885576108846107f4565b5b92915050565b7f4d7573742062652074686520657374617465206f776e657220746f2073656e6460008201527f2061206865617274206265617400000000000000000000000000000000000000602082015250565b60006108e7602d83610679565b91506108f28261088b565b604082019050919050565b60006020820190508181036000830152610916816108da565b9050919050565b6000604082019050610932600083018561064f565b61093f60208301846105f3565b939250505056fea26469706673582212206475f975086546884bd06497987bc22fbce5c69aea2706cd1757c412b321ab0264736f6c63430008110033",
  "devdoc": {
    "kind": "dev",
    "methods": {},
    "version": 1
  },
  "userdoc": {
    "kind": "user",
    "methods": {},
    "version": 1
  },
  "storageLayout": {
    "storage": [
      {
        "astId": 14,
        "contract": "contracts/EstatePlanning.sol:EstatePlanning",
        "label": "beneficiary",
        "offset": 0,
        "slot": "0",
        "type": "t_address"
      },
      {
        "astId": 16,
        "contract": "contracts/EstatePlanning.sol:EstatePlanning",
        "label": "estateOwner",
        "offset": 0,
        "slot": "1",
        "type": "t_address"
      },
      {
        "astId": 18,
        "contract": "contracts/EstatePlanning.sol:EstatePlanning",
        "label": "balance",
        "offset": 0,
        "slot": "2",
        "type": "t_uint256"
      },
      {
        "astId": 20,
        "contract": "contracts/EstatePlanning.sol:EstatePlanning",
        "label": "checkPulseTime",
        "offset": 0,
        "slot": "3",
        "type": "t_uint256"
      },
      {
        "astId": 22,
        "contract": "contracts/EstatePlanning.sol:EstatePlanning",
        "label": "estateOwnerAlive",
        "offset": 0,
        "slot": "4",
        "type": "t_bool"
      }
    ],
    "types": {
      "t_address": {
        "encoding": "inplace",
        "label": "address",
        "numberOfBytes": "20"
      },
      "t_bool": {
        "encoding": "inplace",
        "label": "bool",
        "numberOfBytes": "1"
      },
      "t_uint256": {
        "encoding": "inplace",
        "label": "uint256",
        "numberOfBytes": "32"
      }
    }
  }
}