{
  "address": "0x13fE1309b2CfFC620e6f0B183Ee0Bb782d8C2C56",
  "abi": [
    {
      "inputs": [
        {
          "internalType": "address",
          "name": "_estateOwner",
          "type": "address"
        },
        {
          "internalType": "address",
          "name": "_beneficiary",
          "type": "address"
        }
      ],
      "stateMutability": "nonpayable",
      "type": "constructor"
    },
    {
      "anonymous": false,
      "inputs": [
        {
          "indexed": false,
          "internalType": "address",
          "name": "beneficiary",
          "type": "address"
        }
      ],
      "name": "CheckPulse",
      "type": "event"
    },
    {
      "anonymous": false,
      "inputs": [
        {
          "indexed": false,
          "internalType": "address",
          "name": "estateOwner",
          "type": "address"
        },
        {
          "indexed": false,
          "internalType": "bool",
          "name": "alive",
          "type": "bool"
        }
      ],
      "name": "HeartBeat",
      "type": "event"
    },
    {
      "inputs": [],
      "name": "addFunds",
      "outputs": [],
      "stateMutability": "payable",
      "type": "function"
    },
    {
      "inputs": [],
      "name": "claimInheritance",
      "outputs": [],
      "stateMutability": "payable",
      "type": "function"
    },
    {
      "inputs": [],
      "name": "getBalance",
      "outputs": [
        {
          "internalType": "uint256",
          "name": "",
          "type": "uint256"
        }
      ],
      "stateMutability": "view",
      "type": "function"
    },
    {
      "inputs": [],
      "name": "getEstateOwner",
      "outputs": [
        {
          "internalType": "address",
          "name": "",
          "type": "address"
        }
      ],
      "stateMutability": "view",
      "type": "function"
    },
    {
      "inputs": [],
      "name": "getEstateOwnerAlive",
      "outputs": [
        {
          "internalType": "bool",
          "name": "",
          "type": "bool"
        }
      ],
      "stateMutability": "view",
      "type": "function"
    },
    {
      "inputs": [],
      "name": "getResponseWindow",
      "outputs": [
        {
          "internalType": "uint256",
          "name": "",
          "type": "uint256"
        }
      ],
      "stateMutability": "view",
      "type": "function"
    },
    {
      "inputs": [],
      "name": "heartBeat",
      "outputs": [],
      "stateMutability": "nonpayable",
      "type": "function"
    },
    {
      "inputs": [],
      "name": "terminate",
      "outputs": [],
      "stateMutability": "payable",
      "type": "function"
    }
  ],
  "transactionHash": "0x75dba8595dc38b07ebb1332948c883b992281c615241bde54ca30ddcbc327caf",
  "args": [
    "0x3562aEfEB08Efc77538a0ECcFdb5325d990e0af5",
    "0x0047cB62B6e5BdAd8B094F954Ad8241edE4372d0"
  ],
  "numDeployments": 1,
  "solcInputHash": "81357df94b15b8220292e78c42dc3bc1",
  "bytecode": "0x60a060405263e7be2c0060809081525034801561001b57600080fd5b50604051610adb380380610adb833981810160405281019061003d9190610143565b81600160006101000a81548173ffffffffffffffffffffffffffffffffffffffff021916908373ffffffffffffffffffffffffffffffffffffffff160217905550806000806101000a81548173ffffffffffffffffffffffffffffffffffffffff021916908373ffffffffffffffffffffffffffffffffffffffff1602179055506001600460006101000a81548160ff0219169083151502179055505050610183565b600080fd5b600073ffffffffffffffffffffffffffffffffffffffff82169050919050565b6000610110826100e5565b9050919050565b61012081610105565b811461012b57600080fd5b50565b60008151905061013d81610117565b92915050565b6000806040838503121561015a576101596100e0565b5b60006101688582860161012e565b92505060206101798582860161012e565b9150509250929050565b60805161093d61019e600039600061028e015261093d6000f3fe60806040526004361061007b5760003560e01c80639f3c44161161004e5780639f3c44161461010b578063a26759cb14610115578063b56a9f2c1461011f578063c33dce8a146101365761007b565b80630c08bf881461008057806312065fe01461008a5780636683caa5146100b55780636f78aa70146100e0575b600080fd5b610088610161565b005b34801561009657600080fd5b5061009f6101a1565b6040516100ac919061058d565b60405180910390f35b3480156100c157600080fd5b506100ca6101ab565b6040516100d791906105c3565b60405180910390f35b3480156100ec57600080fd5b506100f56101c2565b604051610102919061061f565b60405180910390f35b6101136101ec565b005b61011d610375565b005b34801561012b57600080fd5b50610134610420565b005b34801561014257600080fd5b5061014b61050f565b604051610158919061058d565b60405180910390f35b6000600160009054906101000a900473ffffffffffffffffffffffffffffffffffffffff1690508073ffffffffffffffffffffffffffffffffffffffff16ff5b6000600254905090565b6000600460009054906101000a900460ff16905090565b6000600160009054906101000a900473ffffffffffffffffffffffffffffffffffffffff16905090565b60008054906101000a900473ffffffffffffffffffffffffffffffffffffffff1673ffffffffffffffffffffffffffffffffffffffff163373ffffffffffffffffffffffffffffffffffffffff161461027a576040517f08c379a0000000000000000000000000000000000000000000000000000000008152600401610271906106bd565b60405180910390fd5b60006003544261028a919061070c565b90507f0000000000000000000000000000000000000000000000000000000000000000811180156102cf575060011515600460009054906101000a900460ff16151514155b156103695760008060009054906101000a900473ffffffffffffffffffffffffffffffffffffffff1673ffffffffffffffffffffffffffffffffffffffff1660025460405161031d90610771565b60006040518083038185875af1925050503d806000811461035a576040519150601f19603f3d011682016040523d82523d6000602084013e61035f565b606091505b5050905050610372565b610371610519565b5b50565b600160009054906101000a900473ffffffffffffffffffffffffffffffffffffffff1673ffffffffffffffffffffffffffffffffffffffff163373ffffffffffffffffffffffffffffffffffffffff1614610405576040517f08c379a00000000000000000000000000000000000000000000000000000000081526004016103fc906107f8565b60405180910390fd5b34600260008282546104179190610818565b92505081905550565b600160009054906101000a900473ffffffffffffffffffffffffffffffffffffffff1673ffffffffffffffffffffffffffffffffffffffff163373ffffffffffffffffffffffffffffffffffffffff16146104b0576040517f08c379a00000000000000000000000000000000000000000000000000000000081526004016104a7906108be565b60405180910390fd5b6001600460006101000a81548160ff02191690831515021790555060006003819055507f7fe074a8ae2e3cab048089987181fd6169eb5fa62717fdca4206b8bcaeeb85ed3360016040516105059291906108de565b60405180910390a1565b6000600354905090565b426003819055506000600460006101000a81548160ff0219169083151502179055507fb796f84a8092696d566b57f45b151e538354d0a57cc18eb1cb524162ef9e44af3360405161056a919061061f565b60405180910390a1565b6000819050919050565b61058781610574565b82525050565b60006020820190506105a2600083018461057e565b92915050565b60008115159050919050565b6105bd816105a8565b82525050565b60006020820190506105d860008301846105b4565b92915050565b600073ffffffffffffffffffffffffffffffffffffffff82169050919050565b6000610609826105de565b9050919050565b610619816105fe565b82525050565b60006020820190506106346000830184610610565b92915050565b600082825260208201905092915050565b7f4d757374206265207468652062656e656669636961727920746f20636c61696d60008201527f2074686520696e6865726974616e636500000000000000000000000000000000602082015250565b60006106a760308361063a565b91506106b28261064b565b604082019050919050565b600060208201905081810360008301526106d68161069a565b9050919050565b7f4e487b7100000000000000000000000000000000000000000000000000000000600052601160045260246000fd5b600061071782610574565b915061072283610574565b925082820390508181111561073a576107396106dd565b5b92915050565b600081905092915050565b50565b600061075b600083610740565b91506107668261074b565b600082019050919050565b600061077c8261074e565b9150819050919050565b7f43616e206f6e6c792062652066756e646564206279207468652065737461746560008201527f206f776e65720000000000000000000000000000000000000000000000000000602082015250565b60006107e260268361063a565b91506107ed82610786565b604082019050919050565b60006020820190508181036000830152610811816107d5565b9050919050565b600061082382610574565b915061082e83610574565b9250828201905080821115610846576108456106dd565b5b92915050565b7f4d7573742062652074686520657374617465206f776e657220746f2073656e6460008201527f2061206865617274206265617400000000000000000000000000000000000000602082015250565b60006108a8602d8361063a565b91506108b38261084c565b604082019050919050565b600060208201905081810360008301526108d78161089b565b9050919050565b60006040820190506108f36000830185610610565b61090060208301846105b4565b939250505056fea2646970667358221220eed68143fcf98ddc6fc87a7600fb35cb39449592ec0517b5ebcc30e4425641df64736f6c63430008110033",
  "devdoc": {
    "kind": "dev",
    "methods": {},
    "version": 1
  },
  "userdoc": {
    "kind": "user",
    "methods": {},
    "version": 1
  },
  "storageLayout": {
    "storage": [
      {
        "astId": 14,
        "contract": "contracts/EstatePlanning.sol:EstatePlanning",
        "label": "beneficiary",
        "offset": 0,
        "slot": "0",
        "type": "t_address"
      },
      {
        "astId": 16,
        "contract": "contracts/EstatePlanning.sol:EstatePlanning",
        "label": "estateOwner",
        "offset": 0,
        "slot": "1",
        "type": "t_address"
      },
      {
        "astId": 18,
        "contract": "contracts/EstatePlanning.sol:EstatePlanning",
        "label": "balance",
        "offset": 0,
        "slot": "2",
        "type": "t_uint256"
      },
      {
        "astId": 20,
        "contract": "contracts/EstatePlanning.sol:EstatePlanning",
        "label": "responseWindow",
        "offset": 0,
        "slot": "3",
        "type": "t_uint256"
      },
      {
        "astId": 22,
        "contract": "contracts/EstatePlanning.sol:EstatePlanning",
        "label": "estateOwnerAlive",
        "offset": 0,
        "slot": "4",
        "type": "t_bool"
      }
    ],
    "types": {
      "t_address": {
        "encoding": "inplace",
        "label": "address",
        "numberOfBytes": "20"
      },
      "t_bool": {
        "encoding": "inplace",
        "label": "bool",
        "numberOfBytes": "1"
      },
      "t_uint256": {
        "encoding": "inplace",
        "label": "uint256",
        "numberOfBytes": "32"
      }
    }
  }
}